{
  "_format": "hh-sol-artifact-1",
  "contractName": "VendingMachine",
  "sourceName": "contracts/VendingMachine.sol",
  "abi": [
    {
      "inputs": [
        {
          "internalType": "address",
          "name": "userAddress",
          "type": "address"
        }
      ],
      "name": "getCupcakeBalanceFor",
      "outputs": [
        {
          "internalType": "uint256",
          "name": "",
          "type": "uint256"
        }
      ],
      "stateMutability": "view",
      "type": "function"
    },
    {
      "inputs": [
        {
          "internalType": "address",
          "name": "userAddress",
          "type": "address"
        }
      ],
      "name": "giveCupcakeTo",
      "outputs": [
        {
          "internalType": "bool",
          "name": "",
          "type": "bool"
        }
      ],
      "stateMutability": "nonpayable",
      "type": "function"
    }
  ],
  "bytecode": "0x608060405234801561001057600080fd5b5061059a806100206000396000f3fe608060405234801561001057600080fd5b50600436106100365760003560e01c80636c5283491461003b578063987133171461006b575b600080fd5b61005560048036038101906100509190610359565b61009b565b60405161006291906103a1565b60405180910390f35b61008560048036038101906100809190610359565b6102ae565b60405161009291906103d5565b60405180910390f35b600080600160008473ffffffffffffffffffffffffffffffffffffffff1673ffffffffffffffffffffffffffffffffffffffff168152602001908152602001600020540361016d5760008060008473ffffffffffffffffffffffffffffffffffffffff1673ffffffffffffffffffffffffffffffffffffffff168152602001908152602001600020819055506000600160008473ffffffffffffffffffffffffffffffffffffffff1673ffffffffffffffffffffffffffffffffffffffff168152602001908152602001600020819055505b60006005600160008573ffffffffffffffffffffffffffffffffffffffff1673ffffffffffffffffffffffffffffffffffffffff168152602001908152602001600020546101bb919061041f565b90506000428211159050801561026e576000808573ffffffffffffffffffffffffffffffffffffffff1673ffffffffffffffffffffffffffffffffffffffff168152602001908152602001600020600081548092919061021a90610453565b919050555042600160008673ffffffffffffffffffffffffffffffffffffffff1673ffffffffffffffffffffffffffffffffffffffff168152602001908152602001600020819055506001925050506102a9565b6040517f08c379a00000000000000000000000000000000000000000000000000000000081526004016102a090610544565b60405180910390fd5b919050565b60008060008373ffffffffffffffffffffffffffffffffffffffff1673ffffffffffffffffffffffffffffffffffffffff168152602001908152602001600020549050919050565b600080fd5b600073ffffffffffffffffffffffffffffffffffffffff82169050919050565b6000610326826102fb565b9050919050565b6103368161031b565b811461034157600080fd5b50565b6000813590506103538161032d565b92915050565b60006020828403121561036f5761036e6102f6565b5b600061037d84828501610344565b91505092915050565b60008115159050919050565b61039b81610386565b82525050565b60006020820190506103b66000830184610392565b92915050565b6000819050919050565b6103cf816103bc565b82525050565b60006020820190506103ea60008301846103c6565b92915050565b7f4e487b7100000000000000000000000000000000000000000000000000000000600052601160045260246000fd5b600061042a826103bc565b9150610435836103bc565b925082820190508082111561044d5761044c6103f0565b5b92915050565b600061045e826103bc565b91507fffffffffffffffffffffffffffffffffffffffffffffffffffffffffffffffff82036104905761048f6103f0565b5b600182019050919050565b600082825260208201905092915050565b7f48545450203432393a20546f6f204d616e792043757063616b65732028796f7560008201527f206d7573742077616974206174206c656173742035207365636f6e647320626560208201527f747765656e2063757063616b6573290000000000000000000000000000000000604082015250565b600061052e604f8361049b565b9150610539826104ac565b606082019050919050565b6000602082019050818103600083015261055d81610521565b905091905056fea2646970667358221220f52729c146ad5640f942937687f46bbc2a0f850f3f5e33b94737bf51a09c0fba64736f6c63430008180033",
  "linkReferences": {},
  "deployedLinkReferences": {}
}